:100000000C9497030C94DE030C94DE030C94DE0333
:100010000C94DE030C94DE030C94DE030C94DE03DC
:100020000C94DE030C94DE030C94AE1F0C946A1F38
:100030000C94AA250C94DE030C94DE030C94DE03CE
:100040000C94DE030C94DE030C94DE030C94DE03AC
:100050000C94DE030C9486250C94DE030C94DE03D2
:100060000C94DE030C94DE030C94DE030C94DE038C
:100070000C94DE030C94DE030C94DE030C94DE037C
:100080000C94DE030C94DE030C94DE030C94DE036C
:100090000C94DE030C94DE030C94DE030C94DE035C
:1000A0000C94DE030C94DE030C94DE03050109803E
:1000B000A101850319012AB700150126B700950192
:1000C00075108100C0050C0901A101850419012AE0
:1000D000A002150126A002950175108100C005013E
:1000E0000906A1018505050719E029E71500250185
:1000F0009508750181020507190029EF15002501F2
:1001000095F075018102050819012905950575010C
:100110009102950175039101C00660FF0961A1017B
:100120000962150026FF00952075088102096315F4
:100130000026FF00952075089102C005010906A15F
:1001400001050719E029E7150025019508750181CA
:10015000029501750881010507190029FF15002680
:10016000FF00950675088100050819012905950508
:1001700075019102950175039101C0000101010112
:100180000101010101020202020202020202030352
:100190000303030303030404040404040405050522
:1001A00005050606060606070707070708080808E4
:1001B000090909090A0A0A0B0B0B0C0C0C0D0D0D91
:1001C0000E0E0E0F0F0F1010111111121213131427
:1001D00014151516161717181819191A1A1B1B1C9F
:1001E0001D1D1E1E1F2020212222232424252626F9
:1001F000272829292A2B2C2D2D2E2F30313232332E
:100200003435363738393A3B3C3D3E3F4041424336
:100210004445464748494A4C4D4E4F50515354551A
:100220005658595A5B5D5E5F616264656668696BCA
:100230006C6D6F7072737577787A7B7D7E80828348
:100240008587888A8C8E8F91939596989A9C9EA08C
:10025000A2A3A5A7A9ABADAFB1B3B5B7BABCBEC099
:10026000C2C4C6C9CBCDCFD1D4D6D8DBDDDFE2E462
:10027000E7E9EBEEF0F3F5F8FAFDFFFFAA7F554052
:100280002223252628292A2C2D2F303233353638A3
:100290003A3B3D3E4042434547494A4C4E505153FC
:1002A0005557595A5C5E6062646668696B6D6F7120
:1002B000737577797B7D7F81838587898A8C8E9022
:1002C000929496989A9C9E9FA1A3A5A7A8AAACAE2B
:1002D000AFB1B3B4B6B8B9BBBCBEBFC1C2C3C5C66B
:1002E000C7C9CACBCCCDCED0D1D2D2D3D4D5D6D714
:1002F000D7D8D9D9DADADBDBDBDCDCDCDCDCDDDD52
:10030000DDDDDCDCDCDCDCDBDBDBDADAD9D9D8D741
:10031000D7D6D5D4D3D2D2D1D0CECDCCCBCAC9C7E3
:10032000C6C5C3C2C1BFBEBCBBB9B8B6B4B3B1AF1A
:10033000AEACAAA8A7A5A3A19F9E9C9A98969492BA
:10034000908E8C8A89878583817F7D7B7977757391
:10035000716F6D6B6968666462605E5C5A5957556F
:100360005351504E4C4A4947454342403E3D3B3A2B
:100370003836353332302F2D2C2A292826252322B2
:1003800029001E001F00200021002200230024005D
:100390002500260027002D002E0035002A002B0006
:1003A00014001A000800150017001C0018000C00AB
:1003B000120013002F00300031000000390004004B
:1003C0001600070009000A000B000D000E000F00C8
:1003D00033003400310028000000E10032001D002D
:1003E0001B00060019000500110010003600370040
:1003F0003800E500E5004C00E000E300E2000151B8
:100400000000000000002C0001510151E600E7004F
:10041000E700E400000035003A003B003C003D00EE
:100420003E003F00400041004200430044004500C0
:1004300001004C00C35C01005200005C010001009F
:100440000100010001000100010001000100005C49
:100450000000BF5C500051004F000100010001008E
:10046000C55CC75CC95C010001000100010000001F
:10047000010001000100BD5CBE5CC05C0100010028
:10048000C65CC85CCA5C01000100010001000100FB
:100490000100010001000000000000000100010057
:1004A0000100010001000100010000000100010045
:1004B0000100010001000100010001000100010034
:1004C0000100010001000100010001000100010024
:1004D0000100010001000100010001000100010014
:1004E0000100010001000000010001000100010005
:1004F00001000100010001000100010001000100F4
:1005000001000100000001000100010001000100E4
:1005100001000100010001000100010001000100D3
:1005200001000100010001000100010000000000C5
:1005300000000100010001000100010001000100B4
:1005400000000100010001000100010001000100A4
:100550000100010001000100010001000100010093
:100560000100010001000100010001000100010083
:100570000100010001000100010001000000010074
:100580000100010001000100010001000100010063
:100590000100010001000100010000000100010054
:1005A0000100010001000100010001000100010043
:1005B0000100010001000100010001000100010033
:1005C0000100000000000000010001000100010026
:1005D0000100010001000000000000000000000018
:1005E0000000000000000000000000007E0F00D4AA
:1005F000FFFFFFC7000000780000000000000000BF
:100600002A2B28000000000000000000000000006D
:1006100000000029000000002C1E34202122243478
:100620002627252E362D3738271E1F20212223244A
:1006300025263333362E37381F0405060708090AE6
:100640000B0C0D0E0F101112131415161718191A82
:100650001B1C1D2F3130232D350405060708090A00
:100660000B0C0D0E0F101112131415161718191A62
:100670001B1C1D2F3130354C32190A00047F3F1FDF
:10068000643214643214783C1E1E140A0509025B9D
:1006900000030100A0FA09040000010301010009A0
:1006A00021110100012240000705810308000A0909
:1006B00004010002030000000921110100012222AF
:1006C000000705820320000107050303200001093C
:1006D0000402000103000000092111010001226D44
:1006E000000705840320000A120110010000000821
:1006F0004D610010010001020301040330000000FD
:100700000C034D00300031003100300000001A03AE
:10071000520079006C006F006F00200073007400BD
:100720007500640069006F000000040309041124CF
:100730001FBECFEFDAE0DEBFCDBF04B603FE27C099
:100740008091380390913903A0913A03B0913B0313
:100750008730904BA740B04BD1F4109238031092E1
:10076000390310923A0310923B0314BE84B7877F7B
:1007700084BF0FB6F894A89580916000886180933B
:100780006000109260000FBEE0E0F8E3099523E0FE
:10079000ACE9B1E001C01D92A833B207E1F711E066
:1007A000A0E0B1E0E2E2FFE402C005900D92AC39B6
:1007B000B107D9F70E948D200C9444270C940000B7
:1007C000E8EDF0E080818E7F80831092E20010924D
:1007D000DA001092E100A0EEB0E08C9181608C9381
:1007E00080818F77808319BCA7EDB0E08C918E7FDC
:1007F0008C9380818F7E80831092050308952091D1
:10080000E4003091E50095E6A9012091EC00822FEB
:10081000817020FF06C08091E80080FF06C080E064
:1008200008952091E80022FD1AC0809133038823A7
:1008300089F0853089F08091EB0085FD0FC0209113
:10084000E4003091E50042175307F9F29150E1F6C8
:1008500084E0089582E0089583E0089581E008959A
:10086000EF92FF920F931F93CF937C018B010E9415
:10087000FF03C82F811117C08091E80085FD0BC0D0
:100880008091E8008E778093E8000E94FF03882320
:1008900099F3C82F08C0F70181917F018093F1007F
:1008A0000150110949F78C2FCF911F910F91FF90A3
:1008B000EF900895CF93FC0180913303843001F5CC
:1008C000C091E900CF702091EC00922F917020FD33
:1008D00090E8C92B82E08093E9008091E80080FFD6
:1008E0000CC050E040E060E270E0CF010E943004B4
:1008F0008091E8008E778093E800CF70C093E90084
:10090000CF91089580912B0387FF13C08091E80059
:1009100082FF06C08091E8008B778093E80004C0D6
:10092000809133038111F2CF08958091330388239E
:10093000D9F38091E80080FFF8CF8091E8008E77AE
:10094000ECCF982F9093E900242F762F50E0891751
:1009500031F07091EC002091ED005091F00021FDFC
:1009600007C09F5F973071F78093E90081E0089599
:100970003091EB003E7F3093EB003091ED003D7FF6
:100980003093ED003091EB0031603093EB007093C9
:10099000EC002093ED005093F0002091EE0027FD35
:1009A000E0CF80E00895CF92DF92EF92FF920F9315
:1009B0001F93CF93DF93C8EDD0E088818F7E88832B
:1009C000E7EDF0E080818160808384E082BF81E098
:1009D0008093050388818E7F888302EE10E0F80102
:1009E00010821092DA0081EEC82ED12CF60110820E
:1009F00088818F77888388818068888388818F7DCC
:100A0000888319BC1092330310922A031092290391
:100A10001092280390EEE92EF12CF70180818B7F54
:100A2000808388818160888342E060E080E00E946A
:100A3000A104F60180818E7F8083F801808181602E
:100A40008083808188608083F70180818E7F8083AE
:100A5000888180618883DF91CF911F910F91FF90F2
:100A6000EF90DF90CF900895FC0180913103909139
:100A7000320386179707A0F06115710529F490914C
:100A8000E8009E779093E80090E06115710551F4BD
:100A9000911108C08091E80082FF34C080E0089581
:100AA000BC01F2CF809133038823C1F18530C1F1BD
:100AB0008091E80083FD30C08091E80082FDEACF9C
:100AC0008091E80080FFE1CF8091F3002091F20057
:100AD000382F6115710519F02830310558F091E073
:100AE0002830310509F090E02091E8002E7720931E
:100AF000E800CBCF81918093F100615071092F5FA5
:100B00003F4FE7CF80913303882341F0853041F098
:100B10008091E80083FFBECF81E0089582E00895D0
:100B200083E00895089508958091070308959C0136
:100B30004FB7F8948091010390910203A0910303B1
:100B4000B09104034FBF821B930B08952FB7F89405
:100B50008091010390910203A0910303B0910403DB
:100B60002FBF08958091C80281111092C802089584
:100B70008091C7029091C602892B9091C502892B62
:100B800080939C019091C8029923A1F0892B8093B6
:100B90009C0180911B01882341F18091D70287FF3E
:100BA00024C08EE1EEE9F1E090E0815000F5911172
:100BB0000E94B205E091DA02F091DB023097E1F099
:100BC00080911B01882359F08091D70287FF07C0CD
:100BD00080919C0180939D0185E080939C0102801F
:100BE000F381E02D8CE991E0099486E0DBCF21913F
:100BF0002223D9F29F5FD9CF089590911B019923A9
:100C0000D1F09091D70297FF16C0E82FE695E695B0
:100C1000E695EE31E0F4F0E0E456FE4F282F277021
:100C200081E090E001C0880F2A95EAF780959281D3
:100C3000892382830895EEE9F1E09191891303C03D
:100C4000DF0111971C9291E0E43AF907B1F708959A
:100C500090911B019923C1F09091D70297FF14C086
:100C6000E82FE695E695E695EE31F8F4F0E0E456E7
:100C7000FE4F877021E030E001C0220F8A95EAF72D
:100C80008281822B82830895AEE9B1E0EFEF90E09C
:100C90002D91821751F0EF3F19F4211101C0E92F76
:100CA0009F5F9630A9F7EF3F09F408950E2E000CD0
:100CB000FF0BE456FE4FE6CF2FE0929F800D1124EC
:100CC000982F977086958695869525E0829FF001EE
:100CD0001124EE56FD4F50E040E080E0219130E0DD
:100CE000092E02C0369527950A94E2F72170332722
:100CF000042E01C0220F0A94EAF7822B4F5F5F4F48
:100D00004530510559F708952FE0929F800D112429
:100D1000982F977041E001C0440F9A95EAF78695A5
:100D20008695869595E0899FF0011124EE56FD4F3A
:100D300090E080E070E05191DF0111979B01082E57
:100D400002C0369527950A94E2F721702195252750
:100D5000242325272C9301968530910561F708956A
:100D60008091910290916002981301C008958F5F65
:100D70008770FACF882341F080959091C70289232C
:100D80008093C7020C94B8050895882339F0909198
:100D9000C702982B9093C7020C94B8050895209130
:100DA0005602309157022817390771F09093570275
:100DB00080935602E091DA02F091DB02309721F045
:100DC0000084F185E02D099408952091540230911A
:100DD00055022817390771F09093550280935402F9
:100DE000E091DA02F091DB02309721F00680F78182
:100DF000E02D099408951092C6021092C5020E9437
:100E0000B80590E080E00E94E50690E080E00C9458
:100E1000CF06609334037093350380933603909329
:100E200037030C94FB060F931F936091340370916A
:100E3000350380913603909137038B019C01067036
:100E4000112722273327063011052105310529F402
:100E500068601F910F910C940907677FFACF0F9379
:100E60001F9341E050E060E070E004C0440F551F64
:100E7000661F771F8A95D2F7CB01BA0160957095EE
:100E8000809590950091340310913503209136039D
:100E90003091370360237123822393231F910F9195
:100EA0000C9409079091C402809589238093C40211
:100EB000282F277071F4282F082E000C330B92175F
:100EC000130639F08595859585950E942F07109218
:100ED000C40208950F931F9341E050E060E070E07A
:100EE00004C0440F551F661F771F8A95D2F7809163
:100EF000340390913503A0913603B09137038A01F2
:100F00009B01082B192B2A2B3B2BC901B8011F91E0
:100F10000F910C9409076093C9027093CA028093E1
:100F2000CB029093CC020C94FB06E091DA02F09194
:100F3000DB02309721F00190F081E02D099480E0F0
:100F40000895882309F452C0823871F40E949507ED
:100F500081FF4CC089E30E9428060E94B80589E3FE
:100F60000E94FD050C94B805833859F40E9495073A
:100F700080FF3CC083E50E9428060E94B80583E5F7
:100F8000EFCF843859F40E94950782FF2FC087E481
:100F90000E9428060E94B80587E4E2CF9CEF980FD4
:100FA000913AF0F290E2980F983088F4877021E03F
:100FB00030E0A90102C0440F551F8A95E2F7CA012B
:100FC00080959091C70289238093C702CBCF9BE580
:100FD000980F933020F490E080E00C94E506885A56
:100FE000873120F490E080E00C94CF060895CF92F2
:100FF000DF92EF92FF92863030F5811125C09091FB
:101000008000977F909380002F98282F30E0AFEFDB
:10101000BFEF0E94352725E030E040E050E00E941D
:101020001327C9012C3764E13607A0F469E070E0AA
:101030000E94FB2570938D0060938C00FF90EF90D1
:10104000DF90CF90089585E0909180009860909314
:101050008000DBCF2A50374D4F4F5F4F942F832FA7
:10106000722F662725EF38E241E050E00E941327F7
:1010700069017A01CA01B9010E94D1259B01AC0125
:10108000C701B6010E94D125672F782F892F992794
:101090006115710521E08207910561F66FEF7FEF21
:1010A000C9CF282F220F220F220F9091EF029770A5
:1010B000922B9093EF02987F21E009F420E0909129
:1010C000EF0220FB90F99093EF020C94F707FA01DE
:1010D000811101C0FB0109948091F202982F9E7F3B
:1010E00061F4817082608093F2028091F5028C3706
:1010F00018F08BE78093F50208958635B0F3817080
:101100008465F1CFAF92BF92DF92EF92FF920F937F
:101110001F93CF93DF93182F062FE9014C3708F068
:101120004BE7E42FF0E0E558FE4F011110C0E491C9
:101130005E2F4E2F4983E8835A83DF91CF911F9111
:101140000F91FF90EF90DF90BF90AF900895202F08
:1011500030E04491D42EE42EF12C56E0159FC001CE
:101160001124EFEFF0E0BF010E94FB25812F90E0FA
:10117000880F991F55E5569FD001579FB00D112438
:101180008A1B9B0B982F990F890F5F01A21AB30A34
:10119000AE9CD001AF9CB00DBE9CB00D11245B2F56
:1011A000089F80011124012F11275F01A01AB10AA5
:1011B000AE9C8001AF9C100DBE9C100D11245F01F0
:1011C000A81AB108A29EC001A39E900DB29E900DD8
:1011D0001124892F9927E81BF90BEE9DC001EF9D83
:1011E000900DFE9D900D1124E92F62307105A1F044
:1011F00050F46115710509F49DCF6130710581F0DE
:10120000EB2F512F97CF6430710569F080F0663075
:10121000710509F48FCFF4CFE42F4B2F592F8ACFCC
:10122000E42F412F87CFEB2F542F492F83CF4B2F04
:101230005D2DE12F7FCF9091D70292FF06C0282F1E
:1012400028712830F9F4877F846093FF06C0282F27
:1012500028712831F1F4877E84612091D80220FF23
:1012600006C0382F38713830D9F4877F816021FF6C
:1012700006C0282F28712831D1F4877E816194FD22
:10128000877E0895282F24712430F9F68B7F88609B
:10129000DCCF282F2471243101F78B7E8861DDCFCC
:1012A000382F3171313019F78E7F8860E0CF282FC9
:1012B0002171213121F78E7E8861E1CF81FF03C04A
:1012C000849A8C9808958498FCCFCF93DF9300D0B4
:1012D0000F92CDB7DEB790913303943011F5898327
:1012E0007B836A839093E9008FEF9091E8008150AF
:1012F00095FD06C095ED9A95F1F700008111F5CFA7
:101300008091E80085FF0DC050E040E063E070E0B0
:10131000CE0101960E9430048091E8008E77809380
:10132000E8000F900F900F90DF91CF9108952091DA
:101330003303243021F4BC0184E00C946509089542
:10134000BC0183E00C946509CF93DF93EC0180919D
:1013500033038430C1F590911B01992329F09091BA
:10136000D70260E297FD02C068E081E08093E90067
:101370008FEF9091E800815095FD06C095ED9A950C
:10138000F1F700008111F5CF8091E80085FF1BC0C7
:1013900080911B0170E050E040E0811104C050E0FA
:1013A00040E068E070E0CE010E9430048091E800E7
:1013B0008E778093E80080E2FE01A8E0B3E0019020
:1013C0000D928A95E1F7DF91CF91089581E08093A6
:1013D000E00080E28093D8001092C9008FE19EE483
:1013E0000197F1F700C0000087E090EBDC018093EB
:1013F000380390933903A0933A03B0933B0388E1F9
:101400009CE00FB6F894A895809360000FBE90936F
:101410006000FFCFCF93C82F882309F4A6C082387D
:10142000C1F40E94950781FDA0C089E30E942806AF
:101430000E94B8052FEF81EE94E02150804090404B
:10144000E1F700C0000089E30E94FD05CF910C94F4
:10145000B8058338A1F40E94950780FD86C083E516
:101460000E9428060E94B8052FEF81EE94E02150DB
:1014700080409040E1F700C0000083E5E5CF84386C
:10148000A1F40E94950782FD70C087E40E9428069F
:101490000E94B8052FEF81EE94E0215080409040EB
:1014A000E1F700C0000087E4CFCF8CEF8C0F813ACA
:1014B00088F580911B01882301F18091D70287FF75
:1014C0001CC0EC2FE695E695E695F0E0E456FE4F5D
:1014D000828190E04C2F477021E030E002C0220F63
:1014E000331F4A95E2F782239323892B79F08C2FBF
:1014F0000E94FD050E94B80509C0EEE9F1E0819166
:10150000C817A9F321E0E43AF207C9F78C2F0E942B
:1015100028069CCF80E28C0F883068F4C77021E0E9
:1015200030E001C0220FCA95EAF78091C702822BF2
:101530008093C7028BCFEBE5EC0FE33040F4F0E093
:10154000E95BFE4F808190E0CF910C94E506C85A8C
:10155000C73158F4EC2FF0E0EE0FFF1FE65BFE4FB3
:1015600080819181CF910C94CF06CF910895CF9334
:10157000C82F0E940A0AC93349F42FEF87EE93E07F
:10158000215080409040E1F700C000008C2FCF91A7
:101590000C94A1070F931F93CF93DF93C62FD42FE3
:1015A000022FFC0182818823A1F0609358020E94DF
:1015B000A6059093530280935202C77081E001C048
:1015C000880FCA95EAF7DF91CF911F910F910C9484
:1015D000C50610915802161335C0809152029091A1
:1015E00053020E949705883C910560F5C0E2CD0F3B
:1015F0001D17B9F080E2810F883040F4177081E048
:1016000001C0880F1A95EAF70E94BA06C83048F45C
:1016100081E09D2F977001C0880F9A95EAF70E948C
:10162000C506802F0E94B70AC83098F4D77081E0B1
:1016300001C0880FDA95EAF7DF91CF911F910F91E2
:101640000C94BA06C77081E001C0880FCA95EAF70A
:10165000F3CFDF91CF911F910F9108958091F20206
:1016600080FD0AC0E2ECF1E0118210821282339612
:1016700051E0E83FF507C1F76A9A3EB13B7F2EB1D2
:1016800024604FB7F89482EC91E0FC015191CF01B6
:1016900068E02EB9000000C057FF3EB9550F0000AA
:1016A00000C000C000C03EB900C06A9591F7F1E0EB
:1016B000883F9F0751F74FBF8FE594E00197F1F7FF
:1016C00000C000000895EF92FF921F93CF93DF9325
:1016D000EC0182ECE82E81E0F82E10E08C8197017D
:1016E0004091F5026091F402810F0E948208125F1E
:1016F00083E0E80EF11C1C3F89F70E942E0B9A81B3
:101700008C8190FF08C08F5F8C83DF91CF911F91F8
:10171000FF90EF9008958150F7CFBF92CF92DF9264
:10172000EF92FF920F931F93CF93DF93FC0182817F
:10173000DD24DA9480FD02C0DD24D39402EC11E0B4
:10174000D0E0C0E022E1B22EF801118210821282B4
:1017500094E0E92EF12CC12C8091BF018C0D8331D6
:101760000CF43DC06B2D0E94ED25892F082E000C36
:10177000990B8C179D0791F48091F5028E9DA00125
:101780008F9D500D11245595479555954795980176
:101790006091F4028091F3020E948208CD0CF1E086
:1017A000EF1AF108C9F621960D5F1F4FC231D1051E
:1017B00059F60E942E0B8091BF0191E0D91215C0FD
:1017C000811111C081E18093BF01DF91CF911F9101
:1017D0000F91FF90EF90DF90CF90BF90089587FF1B
:1017E000C5CF8E5EC3CF8150EECF90E00196BE0193
:1017F0000E940F26E8CF0F931F93CF93DF93C2EC85
:10180000D1E0FE01118210821282339681E0E83F1E
:10181000F807C1F710E000E08091C001082E000C2D
:10182000990B081719078CF180911001082E000CF4
:10183000990B801791074CF19E014091F502609140
:10184000F4028091F3020E9482080F5F1F4F2396DB
:101850000231110509F70E942E0B80910F01909122
:10186000C001980F9093C00120911001280F209380
:101870001001121614F491311CF0819580930F0120
:10188000DF91CF911F910F910895198218821A82CA
:10189000DCCFEF92FF920F931F93CF93DF93EC0176
:1018A0008C819D810196817099279D838C8382EC28
:1018B000E82E81E0F82E10E005E5812F86952C8139
:1018C0003D81820F932F911D817097014091F50208
:1018D0006091F402809F802D11240E9482081F5F76
:1018E00083E0E80EF11C123141F7DF91CF911F9197
:1018F0000F91FF90EF900C942E0BEF92FF920F93AD
:101900001F93CF93DF938C01C2ECD1E0F12CE12C3B
:10191000F80194816091F4028091F302F9E0EF16EE
:10192000F104FCF49923F9F09E014091F5020E9424
:1019300082082FEFE21AF20A239682E1E816F104F8
:1019400039F70E942E0BF801848190E00196817096
:1019500099278483DF91CF911F910F91FF90EF9092
:101960000895992309F39E0140E0E1CF9091F2029E
:1019700090FF0CC0E2ECF1E08183608342833396F8
:1019800091E0E83FF907C1F70C942E0B08950F93EF
:101990001F93CF93DF9300D00F92CDB7DEB78C01AA
:1019A0008091C10181110AC09E012F5F3F4F4BE71B
:1019B0006FEF0E9482088A818093C101F8016481DF
:1019C000613069F08091C10140E0662361F040E040
:1019D000623011F44091C10180E060E004C0609188
:1019E000C10140E080E00E94B60CF801848190E0E3
:1019F000019663E070E00E940F2684830F900F90A1
:101A00000F90DF91CF911F910F910895CF93DF93A6
:101A100000D00F92CDB7DEB79091F20290FF0AC0CE
:101A20009E012F5F3F4F0E9482084B8169818A810E
:101A30000E94B60C0F900F900F90DF91CF910895F8
:101A4000CF93DF93EC01EC81F0E0E058FD4F44913F
:101A5000E2EFF2E0628181810E94060D8C818F5F4E
:101A60008C83DF91CF910895CF93DF93EC01E2EF68
:101A7000F2E0438162818C810E94060D8C818F5F30
:101A80008C83DF91CF9108957F928F929F92AF9236
:101A9000BF92CF92DF92EF92FF920F931F93CF935B
:101AA000DF9308E711E0ADECB2E0712CCC24C394D5
:101AB000D12CE80189918E01E82FE295EF70F0E0DA
:101AC00091A18F70760101C0EE0C8A95EAF7892FFB
:101AD0008E2981A392A17E2D7095972392A3D0EA9F
:101AE000DA95F1F79DE7A92E91E0B92E50E040E09C
:101AF00030E020E0E50169915E01862E82948FE05E
:101B00008822912CE40188A190E06F7002C0959525
:101B100087956A95E2F780FD65C0C601042E02C074
:101B2000880F991F0A94E2F7282B392B4F5F5F4FDC
:101B30004F305105F9F681A1872381A382A1E82ABC
:101B4000E2A28D919C9111972817390709F44DC095
:101B500011963C932E9381E0782A1296D1E00D37AE
:101B60001D0709F0A6CF772009F441C081E08093DA
:101B7000BE010E94A6059093BD018093BC01809197
:101B8000BC019091BD010E9497050697A0F180913C
:101B9000CD029091CE029093F8028093F70280914B
:101BA000CF029091D0029093FA028093F902809133
:101BB000D1029091D2029093FC028093FB0280911B
:101BC000D3029091D4029093FE028093FD02809103
:101BD000D5029091D602909300038093FF02109259
:101BE000BE0109C090E080E09FCF80E0B5CF80913A
:101BF000BE018111C4CF872DDF91CF911F910F912D
:101C0000FF90EF90DF90CF90BF90AF909F908F901C
:101C10007F900895CF9384E090E00E949926C82F8A
:101C200081E290E00E949926982F8C2FCF91089501
:101C30000F931F93CF93DF93C42FD0E0CC0FDD1F02
:101C40002EE1629FC00DD11D112436E9839FC00D86
:101C5000D11D1124CE0186960E949926082F10E0EE
:101C6000102F0027CE0187960E9499269801282BD5
:101C7000C901DF91CF911F910F910895462F8430B4
:101C800038F4753028F46F3018F4672F0C94180E60
:101C900090E080E00895CF93DF930E943E0EEC0128
:101CA00082389105A9F1D8F58133910509F496C0E0
:101CB00048F58932910509F48AC08A9709F495C0DC
:101CC000C11522E5D20708F0B6C0C11531E5D3072A
:101CD00008F026C1C83ED10508F09CC0C03ED10521
:101CE00060F5C83AD10508F087C0C53AD10508F0BB
:101CF000EFC0C130D10509F12097F9F0C430D1050A
:101D0000E0F440C08533910509F45AC0C997C1F683
:101D10008091D702837089F0C0EED0E00EC0833E80
:101D2000910599F170F4803E910501F1823E910593
:101D300039F68091D70282FD21C0CE01DF91CF918B
:101D40000895863E910561F1873E910571F1843ECB
:101D5000910509F0B5CF8091D80281FFEECF809137
:101D6000D702C7EED0E084FD0DC0E7CF8091D70247
:101D700080FD07C19091D80290FFDFCFC3EED0E085
:101D800084FFDBCFD0E0C0E0D8CF8091D70282FDC6
:101D9000FBC09091D80290FDBFCF84FFCECFF2CF91
:101DA0008091D70283FDDDCFC8CF8091D70283FD1C
:101DB000EEC09091D80291FFF0CFC4EED0E0BDCF3D
:101DC0008091D70285FFB9CFC9E2D0E0B6CF80912C
:101DD000D70285FFB2CFC5E3D0E0AFCF8091D70265
:101DE00086FFABCFCAE2D0E0A8CF8091D70286FFB2
:101DF000A4CFC1E3D0E0A1CFCF3BD10518F6C85A9C
:101E0000D0E0CC0FDD1FC65BDE4F0990D881C02D1E
:101E1000D46493CFC11540E5D40708F064C0C11560
:101E200080E4D80708F05CC0CE019A9581159F41E7
:101E300008F483CFA7CFC11536E5D30718F5C11530
:101E400045E5D40708F084C0C11584E5D80708F03B
:101E50007AC09C2F969596959E0123703327C115C5
:101E6000D34508F462C0C1E0D0E002C0CC0FDD1F52
:101E70002A95E2F730E2939FC0011124C82BD92B99
:101E8000DA685BCFC1158AE5D80778F4C11599E502
:101E9000D90708F068C0C11528E5D20708F472CF49
:101EA000DC2FCC27C06FD06A48CFCE019056811569
:101EB000904208F067CF8D2F8F710E941B0990E030
:101EC000982F882788279F719C012C2BE90149C0F6
:101ED000C55AD0E0C95BDE4FC881D0E0D0642DCFB9
:101EE000DF70D06A2ACFCE01E4E096958795EA9517
:101EF000E1F783702C2F26952695237040E2249FCE
:101F000090011124382B8C2F8370C1E0D0E002C0E7
:101F1000CC0FDD1F8A95E2F7C22BD32BDC680DCFE7
:101F2000DC2FCC27C16FD06A08CFC1E0D0E002C05F
:101F3000CC0FDD1F2A95E2F720E2929FC001112409
:101F4000C82BD92BEBCFDC2FCC27C46FD06AF5CEB2
:101F50008C2F0E941B09C82FD0E0DC2FCC27CC2768
:101F6000DF71D062EACE8C2F8F700E941B0934E0A3
:101F7000D695C7953A95E1F7CF709C2FEC01D069C3
:101F8000DCCEC9E3D0E0D9CEC2EED0E0D6CEC6EEEC
:101F9000D0E0D3CEBF92CF92DF92EF92FF920F9319
:101FA0001F93CF93DF938C01C0903403D0903503FF
:101FB000E0903603F09037038091C9029091CA02F5
:101FC000A091CB02B091CC02C82AD92AEA2AFB2AD6
:101FD000CFE1D0E0BC2ED701C6010C2E04C0B695CF
:101FE000A795979587950A94D2F780FD0EC0219703
:101FF00088F7B12C8B2DDF91CF911F910F91FF901E
:10200000EF90DF90CF90BF900895B8018C2F0E9481
:102010004B0E019761F3EECFCF93DF93EC010E945B
:10202000CA0FBE01DF91CF910C944B0E0E940C1091
:10203000292F2F7092959F7092509E3078F4E92F3F
:10204000F0E0EA5BF84D0C942326803F19F020F471
:10205000883E20F481E00895843FE1F380E0089514
:10206000883EC0F3813FD1F7F5CF822F86958695C4
:10207000869508956F927F928F929F92AF92BF92B2
:10208000CF92DF92EF92FF920F931F93CF93DF9344
:1020900080E8C82E83E0D82E9AEDE92EF12CE701D6
:1020A000C659D10936011BC0F50185909490692D60
:1020B000C8010E94AD26682DC80101960E94AD2678
:1020C00082E0A80EB11C0E5F1F4FC017D10761F749
:1020D0008EE1680E711C6E96CE15DF0529F08E011B
:1020E0000E5111095301E0CF7E0186E9E80EF11C83
:1020F00086E9C80ED11C82E3E81683E0F80679F67B
:10210000DF91CF911F910F91FF90EF90DF90CF90D3
:10211000BF90AF909F908F907F906F900895682FA1
:1021200086E090E00C94AD26CF93DF93CEE7D2E02B
:1021300060E0CE010E94AD262196C11584E0D8074B
:10214000B9F7DF91CF910895CF93C82F6FEF811129
:1021500060E282E290E00E94AD266FEFC11169E07B
:1021600083E290E00E94AD266FEFC11166E284E247
:1021700090E0CF910C94AD268F929F92AF92BF9238
:10218000CF92DF92EF92FF920F931F93CF93DF9343
:10219000FC01B280948081E08483C8EFD1E002EC3E
:1021A00011E08BE4A82E88248394EE24EA94F12C89
:1021B0002BE4C22ED12C91101DC01B821A829801D3
:1021C0004A81698188810E94820825960D5F1F4F90
:1021D00082E0C235D80779F7DF91CF911F910F9137
:1021E000FF90EF90DF90CF90BF90AF909F908F9037
:1021F0000C942E0B2B81222309F121502B833C813F
:102200008A2D821B311101C0822F9091F502899F86
:10221000C0011124B6010E94FB256A83211104C06C
:10222000332311F01C82AB8222E02B1540F2809107
:10223000F30288838091F4028983C1CF0E947C26B7
:10224000823091400CF0BBCF82E08B15C0F40E942D
:102250007C26B7010E940F26888322E02B1590F47C
:102260000E947C262091F4022695622F70E00E9445
:102270000F26280F29831A82AB828C82A0CF8091EF
:10228000F302EACF2091F402F5CF90E080E00E94C3
:10229000A72621E08C3E9E4F09F020E0822F089572
:1022A0006CEE7EEF90E080E00E94CB2660E082E062
:1022B00090E00E94AD2660E083E090E00E94AD26B1
:1022C0001092C9021092CA021092CB021092CC0254
:1022D00060E084E090E00E94AD2660E081E290E062
:1022E0000E94AD2660E085E090E00E94AD2660E0AF
:1022F00086E090E00E94AD266FEF87E090E00E94BC
:10230000AD2640E050E0BA0188E090E00E94BF2690
:1023100060E08DE090E00E94AD2640E050E0BA0120
:1023200088E190E00E94BF2660E087E190E00E9493
:10233000AD2640E050E0BA018CE190E00E94BF265B
:1023400060E080E290E00E94AD2640E050E0BA01FB
:102350008FE090E00E94BF2640E050E0BA0183E1A8
:1023600090E00C94BF260E944511811102C00E948A
:10237000501186E090E00E9499268093EF0280330E
:1023800020F0877088628093EF029091EF02892F8E
:10239000817090FF04C0892F8695869586950C9450
:1023A000F707CF92DF92EF92FF926B017C010E94C0
:1023B0006C08B701A60188E090E0FF90EF90DF90F5
:1023C000CF900C94BF265F926F927F928F929F92D4
:1023D000AF92BF92CF92DF92EF92FF920F931F9333
:1023E000CF93DF9300D00F92CDB7DEB7182F762EA4
:1023F000042F622E9091F20290FF29C0E92FE695FA
:10240000AE2FB0E0A45EBE4F8C918093F0029E7F11
:10241000923081F59E012F5F3F4F812F0E948208ED
:102420004B8169818A810E94B60C1093F3027092ED
:10243000F4020093F502662051F06091F20270916F
:10244000F3028091F4029091F5020E94D1110F9055
:102450000F900F90DF91CF911F910F91FF90EF9010
:10246000DF90CF90BF90AF909F908F907F906F90B4
:102470005F900895823019F40091F502D6CF86302E
:1024800019F41091F302D1CF8930D9F3893169F66B
:10249000E9518E2F8170582EE695F0E0E558FD4FFA
:1024A000A590B490BB2482ECE82E81E0F82ED12CCC
:1024B000C12C92E1892E912CC601B4010E94FB250A
:1024C000812F511013C0860F9701402F672D0E9456
:1024D0008208CA0CDB1C83E0E80EF11C88EFE816CA
:1024E00081E0F80649F70E942E0B9FCF861BECCFA8
:1024F000E2EFF2E0438128E0421B08F440E021E0F3
:10250000628181810C94E311E2EFF2E0438128E0E3
:10251000420F08F44FEF21E0628181810C94E311B6
:10252000E2EFF2E0628128E0621B08F460E021E063
:10253000438181810C94E311E2EFF2E0628128E0B3
:10254000620F08F46FEF21E0438181810C94E31165
:10255000E2EFF2E0818121E04381628188500C94B6
:10256000E311E2EFF2E0818121E043816281885F43
:102570000C94E3118091F602882319F08150809326
:10258000F6026091F2027091F3028091F402909150
:10259000F5020C94D1118091F602833018F48F5F0C
:1025A0008093F6026091F2027091F3028091F4023E
:1025B0009091F5020C94D111E2EFF2E083E0808378
:1025C00011828FEF82838BE7838314826081718114
:1025D000828193810C94D1111092C70280911B01CA
:1025E000EEE9F1E0882359F08091D70287FF07C018
:1025F0008EE1DF011D928A95E9F70C94FB0686E0D7
:10260000F8CF1F93CF93DF93CDB7DEB7AA970FB65E
:10261000F894DEBF0FBECDBF8BE293E02091F100B6
:10262000DC012D93CD01B3E083339B07B9F7809193
:102630002C03833009F471C0B8F4813009F448C028
:10264000823009F4B2C08091E80083FF3AC18091E2
:102650002B0390912C039A3008F033C1E92FF0E05E
:10266000EC5AF84D0C9423268A3009F48DC08B3037
:1026700009F470C0893039F780912B03813219F742
:1026800080912F0390913003009711F00297D9F6B3
:102690008091E800877F8093E8008091E80082FFC6
:1026A00037C09091F3008091F200029729F4809155
:1026B000F1008B7F813021F48091F100809307033A
:1026C0008091E8008B778093E8000E948204BBCF62
:1026D00080912B03813A09F0B6CF8091E800877F83
:1026E0008093E80080912F0390913003892B61F44F
:1026F00060E288E093E070E00E9434058091E80099
:102700008B778093E8009FCF60E090E080E0F3CF8C
:10271000809133038111C1CF96CF80912B03813AF1
:1027200009F091CF80912F0390913003892B09F00C
:102730008ACF8091E800877F8093E8008091E8004D
:1027400080FFFCCF80911B018093F1008091E80015
:102750008E77B9CF80912B03813209F074CF8091AD
:102760002F0390913003892B09F06DCF8091E80001
:10277000877F8093E8000E94820480912D038093DC
:102780001B010E94EC125FCF80912B03813209F074
:102790005ACF8091E800877F8093E8000E948204EE
:1027A00080912E03809306034ECF80912B03813AB4
:1027B00009F049CF8091E800877F8093E8008091FD
:1027C000E80080FFFCCF80910603BECF803899F0EF
:1027D000823809F076C080912F038F70873008F01F
:1027E00070C08093E9008091EB0085FB882780F919
:1027F0001092E90006C0809128039091290391115D
:1028000082609091E800977F9093E8008093F100B8
:102810001092F1008091E8008E77C0C1882309F4FE
:10282000ADC1823009F04DC080912D038111B1C13D
:1028300080912F038F702FEF280F263008F041C0B2
:102840008093E9002091EB0020FFA3C1933031F485
:102850008091EB0080628093EB009BC19091EB0034
:1028600090619093EB0021E030E001C0220F8A9547
:10287000EAF72093EA001092EA008091EB0088606A
:10288000EACF81111EC010912D031F778091E300C4
:102890008078812B8093E3008091E800877F80938C
:1028A000E8000E9482048091E80080FFFCCF8091C4
:1028B000E30080688093E30082E0111183E080935D
:1028C00033038091E80083FF0AC08091E800877F8E
:1028D0008093E8008091EB0080628093EB00AA96E1
:1028E0000FB6F894DEBF0FBECDBFDF91CF911F9121
:1028F00008958058823028F720912D0330912E03BF
:102900002C3DE3E03E07A1F583E08A838AE28983D8
:102910004FB7F894DE01139620E03EE051E2E32F3A
:10292000F0E050935700E49120FF03C0E295EF7070
:102930003F5FEF708E2F90E0EA30C0F0C7968D9326
:102940009D932F5F243159F74FBF8091E800877F17
:102950008093E8006AE270E0CE0101960E9434059F
:102960008091E8008B778093E800ABCFC096E7CFEB
:1029700080912F0390913003432F55274330510509
:1029800009F44AC078F54130510509F485C08BE55A
:1029900090E0EDE8F6E04230510509F092CF209149
:1029A000E800277F2093E800209131033091320323
:1029B0008217930708F49C0140E02115310509F0C6
:1029C00070C041116EC08091E80082FDC9CF809136
:1029D0003303882329F2853019F28091E80083FFC0
:1029E000F2CFBECF4132510509F447C04232510502
:1029F00009F067CF8330910508F063CFFC01EE0F3B
:102A0000FF1FE157FE4F0190F081E02D84579E4F4C
:102A1000DC018C9190E01DC0332721303105E9F0B5
:102A20002115310579F022303105F9F023303105D7
:102A300009F047CFEAEFF6E0E4918E2F90E0EAEF5D
:102A4000F6E007C0EAE2F7E0E4918E2F90E0EAE2D8
:102A5000F7E0009709F435CFA2CFEEE0F7E0E4917C
:102A60008E2F90E0EEE0F7E0F4CFE0E0F7E0E491C5
:102A70008E2F90E0E0E0F7E0ECCF8330910508F096
:102A800020CF880F991FFC01EB56FE4F0190F0817B
:102A9000E02D89E090E083CF82E190E0E8EEF6E07F
:102AA0007ECF80913303882309F45ACF853009F40F
:102AB00057CF8091E80083FD53CF8091E80082FDDD
:102AC00082CF8091E80080FF78CF9091F3008091D1
:102AD000F2002115310519F08830910550F041E0E0
:102AE000089709F040E08091E8008E778093E80035
:102AF00064CF44914093F100319621503109019601
:102B0000E8CF803809F0DDCE8091E800877F8093A0
:102B1000E80080912A038093F1007CCE8111D1CE10
:102B200010912D03123008F0CCCE8091E800877F01
:102B30008093E80010932A030E948204112311F06D
:102B400084E005C08091E30087FDFACF81E08093A7
:102B5000330342E061EC81E00E94A10442E261ECB7
:102B600084E00E94A10442E261EC82E00E94A104A0
:102B700042E260EC83E00E94A104A3CE80912D0389
:102B8000813009F09ECE81E0933009F080E080939F
:102B900029031092E9008091E800877F8093E80084
:102BA0000E9482048ECE9091F20290FF3DC09170FF
:102BB000811129C092609093F202662351F06091D6
:102BC000F2027091F3028091F4029091F5020E945A
:102BD000D1116091F202669570E04BE050E084E024
:102BE00091E00E948C26892BA9F01092F10281E0DD
:102BF0008093E00220E04091F5026091F402809120
:102C0000F3020C94E3118B3210F09465D4CF880F4B
:102C1000982BD1CF81E08093F1020E94A60590937A
:102C2000DE028093DD02E3CF08958091F202869563
:102C3000815009F48AE261E00C94D3158091F2028C
:102C400086958F5F8B3208F081E061E00C94D3159C
:102C50009091F20290FF07C09695981720F0961772
:102C600010F40C941E1661E00C94D3154F925F92F1
:102C70006F927F928F929F92AF92BF92CF92DF928C
:102C8000EF92FF920F931F93CF93DF9300D000D06A
:102C90000F92CDB7DEB77C01FC0183819481892B33
:102CA00031F08081918189238F3F09F062C60F90B6
:102CB0000F900F900F900F90DF91CF911F910F9178
:102CC000FF90EF90DF90CF90BF90AF909F908F904C
:102CD0007F906F905F904F9008950E94CA0F182FB9
:102CE000682F89819A810E94840669817A81812F67
:102CF0000E943E0E8C01F7019281992309F414C6BB
:102D0000980122513F452031310508F092C58FEFDF
:102D100093E00E94992602515EE7852E52E0952E9F
:102D2000882379F18091C402877009F4C0CFF7013C
:102D30008281882309F4BBCF82E00F900F900F901F
:102D40000F900F90DF91CF911F910F91FF90EF9017
:102D5000DF90CF90BF90AF909F908F907F906F90BB
:102D60005F904F900C9452078114F4E09F06D1F2CB
:102D7000C4010E949926811101C001502FEF821ACF
:102D8000920A0111F1CF1C821B82662463944AE0EF
:102D9000542E84010F5F1F4FC4010E94992689831E
:102DA0001A82882309F4BECF9FEF980F933008F55D
:102DB0008A83698232E0830E911CC8010E949926A1
:102DC0008B83882309F4AECF8E010F5F1F4FF8016C
:102DD00020812223F1F2213009F043C091818281C8
:102DE000913049F40E5F1F4F0E94B70A0F5F1F4FCB
:102DF000EECF4801E9CF923029F40E5F1F4F0E94B9
:102E00000A0AF4CF933029F40E5F1F4F0E94A107E6
:102E1000EDCF943019F00F5F1F4FE8CF0E5F1F4FBB
:102E200030E020E0B8016F5F7F4FF80141818053AF
:102E3000990B8A30910550F021503109B8F28FE991
:102E40009FE00197F1F700C00000F6CF529EF0011D
:102E5000539EF00D11249C012E0F3F1F842F8B01D8
:102E6000E1CFE22FF0E0E850FA4F7490822F869580
:102E70008695869590E0FC01E851FA4FA490277062
:102E8000B12C022E02C0B594A7940A94E2F7E1E0B7
:102E9000AE22BB24FC01E852FA4FC490D12C02C0F0
:102EA000D594C7942A95E2F7F1E0CF22DD24A1144E
:102EB000B10419F081EE0E940A0AC114D10419F07C
:102EC00086EE0E940A0A872D0E94B70ACD2819F0C3
:102ED00086EE0E94A107AB2809F488CF81EE96CF39
:102EE00081E00E946A070E9413071CCF81E00E94C4
:102EF0002F07F9CF82E0F5CF82E0F9CF0F3BFCE559
:102F00001F0709F44AC098F1003C3CE5130709F09B
:102F1000ACC49091EF02892F8695869586958F5F38
:102F20008F719770863008F059C0880F880F880F0E
:102F3000892B8093EF028091EF0210C085E00E9400
:102F400051088091EF020E948F10ECCE8091EF0229
:102F5000982F987FE9F188508093EF02887F91E065
:102F600009F490E08091EF0290FB80F913C080910A
:102F7000EF02982F969596959695953040F49F5F21
:102F8000990F990F990F8770892B8093EF02809189
:102F9000EF0281608093EF0219C08091EF0280FF01
:102FA00009C08E7F8093EF020E948F1080E00E9404
:102FB000F707B8CE80FDB6CE81608093EF028130F6
:102FC00019F489E08093EF028091EF020E948F1044
:102FD0008091EF02869586958695E9CF9093EF02D2
:102FE000AACF27E245EE65EEC0C426E241EE60EED0
:102FF000BCC427E245EE64EEB8C426E241EE62EEC0
:10300000B4C428E241E0EFCF8091D702806106305E
:103010003CE5130709F47FC008F484C08091D7020F
:10302000806279C08091D7028D7F0C309CE51907B2
:1030300009F471C070F48091D7028C600A30FCE50D
:103040001F0709F468C008F479C08091D7028E7F09
:1030500062C08091D702877F0E303CE5130709F4E8
:103060005AC008F471C08091D7028F7E54C00B3FC4
:103070009CE5190709F45AC030F50331FCE51F0738
:1030800009F472C078F401313CE5130709F468C013
:1030900002311C4509F038C40E94EC128091D7021D
:1030A0008F7739C005319CE5190709F465C008F42C
:1030B00079C08091D80281600A3F1C4509F024C480
:1030C0008093D80221C40F3F2CE5120709F450C0A9
:1030D00070F40D3F8CE51807D9F18091D8028E7FEE
:1030E0000E3F1C4568F38091D8028360E9CF013020
:1030F000EDE51E0709F45FC008F44AC060E0023045
:103100001D4509F001C48EE090E00E94AD26FCC38D
:103110008091D70281608093D702F6C38091D70255
:103120008460F9CF8091D7028860F5CF8091D80272
:103130008260C6CF8091D7028064EDCF0E94EC12EE
:103140008091D7028068E7CF8091D7028B7FE3CF51
:103150008091D8028D7FB4CF8091D7028F7DDBCF55
:103160008091D7028F7BD7CF8091D702837FD3CF37
:103170008091D8028C7FA4CF8091D70282FB9927BF
:1031800090F921E0922790FB82F990FB83F9C3CF5D
:103190008091D802982F909591708E7F892B90FB0B
:1031A00081F98ECF0E94EC129091D702892F97FB64
:1031B00087F98058B0CF61E0A6CF8091C702063171
:1031C0003CE5130709F0E6C38A7A91E009F490E040
:1031D00090935902811106C089E20E9428060E943C
:1031E000B805A0CD85E3F9CF85E3F4C38091F20261
:1031F00080FF1BC08E7F8093F2026091F20270917B
:10320000F3028091F4029091F5020E94D111109284
:10321000F1028FEF90E7E2E081509040E040E1F76B
:1032200000C000000E942E0B7DCD81608093F202D1
:1032300061E086950E94D31575CD45E156E16EE1BA
:1032400076E10E9467086ECD4EE156E165E176E1D8
:10325000F8CF48EA52E161EB72E1F3CF41EB52E182
:1032600068EA72E1EECF40E952E16CE972E1E9CF40
:103270004CE952E160E972E1E4CF48E752E164E8E9
:1032800072E1DFCF44E852E168E772E1DACF4AEB5E
:1032900052E16BEC72E1D5CF4BEC52E16AEB72E19B
:1032A000D0CF61E081E0C6CF65E082E00E942816C1
:1032B00039CD68E086E0FACF6EE089E0F7CF64E1CF
:1032C0008FE0F4CF67E185E1F1CF61E088E1B2CF33
:1032D00062E289E1EBCF61E083E2ACCF0115FCE56E
:1032E0001F0709F447C00E3D1C4509F450C0F70103
:1032F00000811181992309F44DC0C8010E94CA0FB1
:10330000D82E682FC8010E948406B8018D2D0E9416
:103310004B0E8C01882EF701A580A2943FE0A322DA
:10332000D280D1101092C6028091C402877099F0A9
:10333000DD2089F0812F807F803421F080E2800FB2
:10334000883048F082E00E9452078091C402877062
:10335000CC24C3948111C12CB12EB2942FE0B2229F
:10336000FBE0FB1508F450C0EB2DF0E0E25AF84DFD
:103370000C9423260E94EC123FEF84E39CE0315032
:1033800080409040E1F700C000000E94E6090E94E2
:103390005011C8CCC8010E945C06D82EB6CF212F90
:1033A0002F70A22E107F19F0A29490EFA922DD2099
:1033B000C9F0AA2069F080E2800F883010F08110F7
:1033C0000BC08091C702A82AA092C7020E94B8052C
:1033D000802F0E940A0A18C08091C602A82AA092D3
:1033E000C602F4CF802F0E94A107AA2069F0A09402
:1033F000005E083010F081103DC08091C702A82205
:10340000A092C7020E94B805EB2DE850FF0B34973D
:1034100020F40E9495070E945E09CC2009F447CC55
:103420008091C40280FD43CCF70112828595859579
:1034300085950E946A07C7010E9436168091C402D2
:103440008595859585950F900F900F900F900F9013
:10345000DF91CF911F910F91FF90EF90DF90CF9070
:10346000BF90AF909F908F907F906F905F904F90A4
:103470000C942F078091C602A822A092C602C2CF48
:10348000312F3F70932E107F103219F0929480EFFD
:103490009822882071F081E0881661F1DD20B9F171
:1034A000AA2071F1F701858180FF92CF8F7085830B
:1034B00027C0DD2091F09091C802892D892BA110A1
:1034C00003C00E94C506A0CFE1E0AE12FACF981764
:1034D00009F49ACF8093C80297CFA11006C00E942A
:1034E000B205892D0E94BA068FCFF1E0AF1609F41C
:1034F0008BCFF5CFDD2031F025E02A1508F484CFFD
:10350000892DDFCF34E03A1508F47ECFEACFAA2028
:1035100041F3F9E38F1286C12FEF37EE83E021509C
:1035200030408040E1F700C000007CC1812F8695CB
:103530008695837061F0813009F066CFC801937081
:10354000D11002C090E080E00E94CF065DCFC8019C
:103550009370D11002C090E080E00E94E50654CF45
:10356000812F837009F066C0D1104ECF802F8295D5
:1035700086958770880F880F602F6F70462E512CAC
:10358000712C612C082E04C0440C551C661C771C41
:103590000A94D2F740E050E0BA0104FF0FC04FE0B8
:1035A00050E060E070E004C0440F551F661F771FB5
:1035B0008A95D2F74095509560957095812F8695A4
:1035C00086958370823019F1D8F40091C902109168
:1035D000CA022091CB023091CC02813069F044299B
:1035E000552966297729CB01BA01602371238223EB
:1035F00093230E948B0708CF402A512A622A732AFC
:10360000CB01BA016429752986299729F2CF44296B
:103610005529662977290091C9021091CA02209183
:10362000CB023091CC02CB01BA01602771278227EF
:103630009327DFCF8695DD2011F0812F81708823BD
:1036400009F4E2CE802F829586958770880F880FC7
:10365000602F6F70462E512C712C612C082E04C0E7
:10366000440C551C661C771C0A94D2F740E050E0CD
:10367000BA0104FF0FC04FE050E060E070E004C00A
:10368000440F551F661F771F8A95D2F740955095B6
:1036900060957095812F869586958370823019F19B
:1036A000D8F4009134031091350320913603309102
:1036B0003703813069F04429552966297729CB01E0
:1036C000BA0160237123822393230E9409079CCEB1
:1036D000402A512A622A732ACB01BA01642975292A
:1036E00086299729F2CF44295529662977290091FF
:1036F0003403109135032091360330913703CB0109
:10370000BA016027712782279327DFCF1F70DD2042
:1037100029F0812F0E946A07802FD3CE802F0E942C
:10372000BA06812F0E942F076FCE802F92EF891645
:1037300009F450C0981578F0E0EF8E1619F1F1EF0A
:103740008F1609F43FC0DD2009F467C0A11040CEF8
:10375000812F8F713CC023EF821609F440C034EFF3
:103760008312F1CFDD2009F44DC01F71812F0E941B
:103770006A07E8E01E9FC001112483608093C402A1
:10378000812F25C0DD20C9F084E08A1508F43CCEE5
:103790001F7161E070E080E090E004C0660F771F69
:1037A000881F991F1A95D2F70091340310913503A1
:1037B0002091360330913703A4CF95E09A1508F491
:1037C00023CEE6CF812F8F71DD2009F4ABCF0E948D
:1037D0006A071ACE812F8F71DD20C9F3A3CF60E075
:1037E00070E0CB01DD2009F470CF1F7161E070E063
:1037F00080E090E004C0660F771F881F991F1A951C
:10380000D2F763CF81E00E945207F1E0FA1508F089
:10381000FBCD82E00E945207F7CDAA2039F0893310
:1038200009F47ACE802F0E94A107EECD812F8F71EF
:1038300079CF0031FFE51F0709F452CB01312FE5A5
:10384000120709F457CB0D3B2CE5120709F47ECB88
:1038500008F054CB0B3B8CE5180709F46FCB80E0E4
:103860000C3BECE51E0709F46ACB033FECE51E07B1
:1038700009F4BBCB08F0B1C0083D2CE5120709F4F0
:10388000B0CB093D3CE5130709F4BBCB073D8CE504
:10389000180709F467C01092580202308CE5180727
:1038A00008F48BCC0631ECE51E0738F098012A5F4E
:1038B0003C452930310508F080CC0E940A0E9093D7
:1038C000D8028093D7020031FCE51F0709F444CCED
:1038D00008F0CDCB08303CE5130709F42BCC08F0F9
:1038E000A1CB04309CE5190709F418CC08F08CCB67
:1038F0000230FCE51F0709F40BCC8091D7028260EF
:1039000003301C4509F407CC6091D7021091D8020E
:1039100084E090E00E94AD26612F81E290E00E9459
:10392000AD260E94EC12FEC900313FE5130709F4F1
:10393000DDCA01318FE5180709F4DECA033F2CE523
:10394000120709F452CB90F5083D8CE5180709F4ED
:1039500048CB093DECE51E0709F453CB073DFCE5D8
:103960001F0779F526E241EE61EEC7010E94CA0AFF
:10397000D9C985E0DE01119601900D928A95E1F793
:10398000F701228189819A812111A7C90E945C06D1
:10399000182FABC98272F801E25CFC45E431F105F5
:1039A00008F09CCCE659F84D0C942326053F2CE5F5
:1039B000120709F422CB08F41CCB063F8CE518074C
:1039C000C1F006311C4509F092CC80915902811159
:1039D0000BCC89E20E94FD0502CC053FECE51E07F9
:1039E00009F40BCB08F405CB063F2CE5120709F0D0
:1039F00052CF27E245EE66EEB8CF1F93CF93DF9309
:103A000080915F02807FA9F480915C02882389F015
:103A100080919102D091600260915A0270915B0294
:103A2000A0915D02B0915E02C62FC72316E0D813A5
:103A300004C0DF91CF911F91089590E0109711F08D
:103A4000CF3F19F401968770F2CF189F9001199F0C
:103A5000300D1124F901EF59FD4F41814713F2CF89
:103A600040814613EFCF42814111ECCF4381548115
:103A70004A1B5B0B483C510528F780915F028F7011
:103A8000806180935F02F901EA59FD4F80818F7058
:103A9000806180838AE592E00E943616DF91CF91A3
:103AA0001F910C94B006AF92BF92CF92DF92EF922B
:103AB000FF920F931F93CF93DF93CDB7DEB761973C
:103AC0000FB6F894DEBF0FBECDBF8C0185E0F801C4
:103AD000DE011D9601900D928A95E1F7F801808133
:103AE0009181E2802AE5A22E22E0B22E60915D0251
:103AF00070915E026115710509F43EC130915A0260
:103B000040915B02232F24232F3F09F435C1C3804A
:103B1000D480F0905C02F601E61BF70BFF2009F45D
:103B2000FBC020915F02522F507FE83CF10508F066
:103B3000BBC0511178C0FE2C491321C038131FC0DF
:103B4000E1101DC02F70206120935F02C5010E940B
:103B5000361680915F02F80185838F2D61960FB62E
:103B6000F894DEBF0FBECDBFDF91CF911F910F91B3
:103B7000FF90EF90DF90CF90BF90AF900895CD2849
:103B800029F0282F29232F3F09F014C120E0F22F1C
:103B9000F170DF2E20FF3DC0209191024091600224
:103BA00056E0241315C08D879E878D859E850E94C3
:103BB0000C10292F22952F702230F8F0243020F598
:103BC0009F70F9F0F8019581907FD9F4D12C1FC036
:103BD00030E0529FF001539FF00D1124EF59FD4F3B
:103BE0006181961306C06081861303C06281E6126C
:103BF00010C02F5F3F4F2770D4CF9F7011F08823E4
:103C000029F3805E883010F3C8010E943616FD2C1F
:103C1000A4CFEE2009F4A1CF80915F028160809350
:103C20005F02F12C9ACF491312C0381310C0E11073
:103C30000EC0F8012583C8010E94361686E0F801FF
:103C4000AAE5B2E001900D928A95E1F786CF8D87C3
:103C50009E878D859E850E941610882309F1EE208F
:103C6000F9F080915F02803270F020915A02309119
:103C70005B0238872F831986DB86CA868C87CE0144
:103C800007960E94361686E0F801AAE5B2E0019098
:103C90000D928A95E1F70E94FD1CFF24F3945DCFFD
:103CA000C8010E943616F9CF51110AC08AE592E088
:103CB0000E94361686E0F50111928A95E9F7B1CF98
:103CC00049130FC038130DC0E1100BC0F801258354
:103CD000C8010E94361686E0F50111928A95E9F72F
:103CE0003CCF8D879E878D859E850E9416108823E8
:103CF000B9F2EE20A9F280915F02803220F2209189
:103D00005A0230915B023A8329831B82DD82CC8286
:103D10008E83CE010196B5CFE83CF105E0F6FE2C8E
:103D2000EE2009F4BDCF491316C0381314C080919A
:103D30005F0280FD83CF982F907F09F47FCFF80139
:103D40008583903F09F477CF982F907F905F8F7095
:103D5000892B858370CF8D879E878D859E850E9458
:103D60001610811190CF80915F02816080935F0275
:103D7000C8010E943616F1CEEE2009F491CF8D874E
:103D80009E878D859E850E941610F82E882309F443
:103D900087CF86E0F801AAE5B2E001900D928A95FE
:103DA000E1F780915A0290915B020E940C100E94F0
:103DB000FD1CD3CE21E02E25EACE1F93CF93DF93B7
:103DC000CDB7DEB767970FB6F894DEBF0FBECDBF95
:103DD0004B8B5C8B6D8B7E8B8F8B1A8A198A85E05F
:103DE000FE017396DE011D9601900D928A95E1F712
:103DF00086E0FE013D96DE01179601900D928A95B0
:103E0000E1F7CE0107960E94531D882389F016E042
:103E10008091910290916002891349C067960FB614
:103E2000F894DEBF0FBECDBFDF91CF911F910895F3
:103E300086E0FE013796DE01119601900D928A957B
:103E4000E1F78A859B85892B11F38F8198858923DA
:103E50008F3FE9F22091600230E0C901019687703E
:103E60009927409191024817190671F40E94EC12AB
:103E7000109260021092910286E0EAE5F2E0DF0122
:103E80001D928A95E9F7C3CF96E0929FD001939F48
:103E9000B00D1124AF59BD4FFE01319601900D9226
:103EA0009A95E1F7809360020E94B006B0CF819F9F
:103EB000C00111248F599D4F0E94531D882309F47E
:103EC000ADCF8091910290E0019687709927809301
:103ED00091029ECF1F920F920FB60F9211242F9333
:103EE0003F934F935F936F937F938F939F93AF9382
:103EF000BF93CF93DF93EF93FF93D091E900DF70EF
:103F00008091EC00C82FC17080FDC0E81092E900DC
:103F10008091F000877F8093F00078940E940113D5
:103F20001092E9008091F00088608093F000CD2B22
:103F3000CF70C093E900FF91EF91DF91CF91BF91D6
:103F4000AF919F918F917F916F915F914F913F9131
:103F50002F910F900FBE0F901F9018951F920F92E8
:103F60000FB60F9211242F933F934F935F936F934C
:103F70007F938F939F93AF93BF93EF93FF93809122
:103F8000E10082FF09C08091E20082FF05C08091BC
:103F9000E1008B7F8093E1008091DA0080FF24C0F4
:103FA0008091D80080FF20C08091DA008E7F8093BE
:103FB000DA008091D90080FFA3C080E189BD82E151
:103FC00089BD09B400FEFDCF81E080933303809169
:103FD0000503811109C00E94E0030E94D30480916F
:103FE000E20084608093E2008091E10080FF17C0CE
:103FF0008091E20080FF13C08091E2008E7F809369
:10400000E2008091E20080618093E2008091D8001C
:1040100080628093D80019BC85E08093330380913F
:10402000E10084FF31C08091E20084FF2DC080E177
:1040300089BD82E189BD89B5982F917080FFFBCF42
:104040008091D8008F7D8093D8008091E1008F7E91
:104050008093E1008091E2008F7E8093E200809166
:10406000E20081608093E20080912A03882309F4B2
:104070004DC084E0809333030E94EC120E94B31180
:104080000E9495070E945E098091E10083FF27C08E
:104090008091E20083FF23C08091E100877F8093BD
:1040A000E10082E08093330310922A038091E100C3
:1040B0008E7F8093E1008091E2008E7F8093E2000A
:1040C0008091E20080618093E20042E060E080E065
:1040D0000E94A1048091F00088608093F000FF911D
:1040E000EF91BF91AF919F918F917F916F915F9170
:1040F0004F913F912F910F900FBE0F901F901895E9
:1041000019BC10923303109205036ECF8091E30027
:1041100087FD93E090933303AFCFCDB7DEB7AA9777
:104120000FB6F894DEBF0FBECDBF84B7877F84BFC4
:104130000FB6F894A8958091600088618093600024
:10414000109260000FBE80E890E00FB6F894809364
:104150006100909361000FBE85B7806885BF85B709
:10416000806885BF0E94E0030E94D3048091E20032
:1041700084608093E2007894809133038823A1F0D7
:104180001091E9001F709091EC00892F817090FDD3
:1041900080E8182B1092E9008091E80083FD0E94CE
:1041A00001131F701093E90082E084BD93E095BD78
:1041B0009AEF97BD80936E00A8E7B1E061E070E0F0
:1041C0008D91E82FE295EF70F0E041A18F709B0197
:1041D00001C0220F8A95EAF7922F9095942391A31C
:1041E00082A1822B82A321E0AD37B20749F7ADE768
:1041F000B1E061E070E08D91E82FE295EF70F0E0C2
:1042000041A18F709B0101C0220F8A95EAF7922F7E
:104210009095942391A382A1822B82A381E0AC3854
:10422000B80749F71092CE021092CD021092F80210
:104230001092F7021092D0021092CF021092FA025E
:104240001092F9021092D2021092D1021092FC0246
:104250001092FB021092D4021092D3021092FE022E
:104260001092FD021092D6021092D5021092000315
:104270001092FF020E94440D9FEFE6E7F1E091509B
:10428000E040F040E1F700C000000E94440D809142
:10429000F70280FF0BC080E00E94A4106FEF7FEF59
:1042A00090E080E00E94CB260E94E6090E94451122
:1042B000811102C00E945011279A2F988AE08093A2
:1042C000800089E1809381008FEF9FEF90938700BA
:1042D000809386000E94B31182E290E00E949926AA
:1042E000803209F0FDC383E290E00E949926893074
:1042F00009F0F6C384E290E00E949926863209F024
:10430000EFC30E944511811102C00E94501182E04A
:1043100090E00E9499268093E4020E940A0E9093F6
:10432000D8028093D70283E090E00E949926682FFC
:1043300070E090E080E00E948B070E94B3118091B2
:10434000D902811133C00E944511811104C00E941D
:1043500050110E94DC1288E090E00E94A126609338
:10436000F2027093F3028093F4029093F5026E7F51
:1043700071F40E94DC1288E090E00E94A126609314
:10438000F2027093F3028093F4029093F5020E947C
:104390006C081092F1028091F20280FF04C060E08C
:1043A00086950E94D31581E08093D90281E191E046
:1043B0009093DB028093DA0255E0652E712CEE2497
:1043C000EA94F12C7BE7C72E76E0D72E8091330359
:1043D000853009F4B9C00E94440DA7EFB2E0E5EEC4
:1043E000F2E010E000E0702F8D919D9121913191CC
:1043F0002817390709F4F0C02827392760E0AA24D4
:10440000A394B12CA9014A215B21452B09F4DEC0FC
:1044100069A37AA39C012A213B2191E0232B09F473
:1044200090E09BA30E94A6058160782F9DA38CA39A
:1044300049A15AA16BA18DA10E94DD1E000F111F81
:10444000F801EB51FD4F80819181A826B926B182F8
:10445000A0828091F102882309F441C08091F0028A
:10446000E091F202E695E81BE093DF02823009F06A
:10447000CAC0F0E0E757F94FE4910E2F10E080E258
:10448000A82E8DE0B82E8091E002882389F010924A
:10449000E0020E94A605980120953095820F931F97
:1044A0009093DE028093DD021092E2021092E1020C
:1044B0008091DD029091DE020E949705801791079E
:1044C00070F0E091DD02F091DE020E0F1F1F1093DD
:1044D000DE020093DD028DED92E0F50109950E9468
:1044E00095079091E302891731F00E949507809318
:1044F000E3020E945E0980913303843009F066CFA5
:1045000083E08093E9008091E80082FF5FCF809193
:10451000E80090E085FF06C00E94FF03882309F4AD
:10452000DDC091E08091E8008B778093E8009923CB
:1045300009F44CCFE981E150E33108F04AC1F0E0E1
:10454000E258F84D0C94232680913303843051F1C6
:104550001092DC0288E190E020E40FB6F894A89570
:10456000809360000FBE2093600080E00E94F707F8
:1045700080E00E945E0983B7817F846083BF83B738
:10458000816083BF7894889583B78E7F83BF0FB691
:10459000F894A895809160008861809360001092E3
:1045A00060000FBE80912903882309F40FCF0E9479
:1045B000440DE7EFF2E081E093E021913191232B6C
:1045C00009F078C28E179F07C1F700CF6F5FAA0C62
:1045D000BB1C6F3009F016CF0F5F1F4F0530110560
:1045E00009F001CF8FEF8EA38FA318A60E94A60516
:1045F0008160782F9AA789A74EA15FA168A58AA597
:104600000E94DD1E26CF863059F4F0E0EA57F94FBC
:10461000E4910E2F10E0B4E3AB2EBDE0BB2E33CF00
:10462000893061F4E695F0E0ED57F94FE4910E2FF3
:1046300010E0A3E6AA2EABE0BA2E25CF8F3061F4AE
:10464000E695F0E0E058F94FE4910E2F10E0FDE818
:10465000AF2EFBE0BF2E17CF853159F4F0E0E358C1
:10466000F94FE4910E2F10E0EBEFAE2EEBE0BE2EF3
:104670000ACF08EE13E059E4A52E5CE0B52E883190
:1046800009F401CF833241F4F6010591149177ECDE
:10469000A72E7CE0B72EF7CE04EF11E04DE7A42E55
:1046A0004CE0B42E843209F4EECE00ED17E032E98E
:1046B000A32E35E0B32E853209F0E5CE8E2F63E0D0
:1046C0000E94E125E92FF0E0E858F94FE4910E2F20
:1046D00010E06CEBA62E60E1B62ED5CE00E210E025
:1046E000CE0101965C018091E80085FD0AC08091B1
:1046F000E8008B778093E8000E94FF03882399F3FA
:1047000010CF8091F100F50181935F0101501109F3
:1047100051F707CF1A8289E08B831AC08A818230D1
:1047200009F4EBC18330C9F0813009F052C02FB7D2
:10473000F8946091010370910203809103039091BA
:1047400004032FBF0E9429266B837C838D839E8365
:10475000CE0101960E945A0439CE8091F7029091C1
:10476000F8029827892798279C838B838091F902E8
:104770009091FA029827892798279E838D838091AC
:10478000FB029091FC0298278927982798878F83AE
:104790008091FD029091FE029827892798279A8799
:1047A00089878091FF029091000398278927982795
:1047B0009C878B87CDCF8A81823059F46B817C8135
:1047C0008D819E810E94292685E290E00E94AD267F
:1047D000BFCF8FEF8983BCCF4C816B818A810E94D0
:1047E000180E9827892798279E838D83B1CFAD8097
:1047F000BE80BA24AB24BA248A810B81FEE10F9FCC
:104800008001112426E9829F000D111D11248C8145
:1048100090E0880F991F080F191F6B2DC80186960D
:104820000E94AD266A2DC8018796D0CF0E943A100B
:104830008FCF8A81893059F48B81E5E08E9FC0014A
:104840001124B7010E94FB25862F0E9451088A81FE
:104850008138C1F060F4803809F07ACF20E04B81D4
:104860006091F4028091F3020E94E31171CF8238CB
:1048700059F1833809F06CCF20E04091F5026C814A
:104880008B81F2CF60E08B810E94D3159B81809158
:10489000F202911111C08E7F8093F2021092F10208
:1048A000FFEF20E782E0F15020408040E1F700C0B8
:1048B00000000E942E0B4CCF81608093F20260E0DA
:1048C00086950E94D31544CF8B818093F60240CF0A
:1048D0008A81893059F08A30B9F0813819F1B0F401
:1048E000803809F035CF8091F50216CF8091EF0224
:1048F000869586958695EFEF8E9FC0011124B301B2
:104900000E94FB256B8324CF1B8222CF823891F03B
:10491000833809F01DCF8091F3028B838091F402DC
:104920008C8316CF8091F20280FF02C08695F4CE70
:1049300080E0F2CE8091F602EFCE8091EF020E94ED
:104940008F106091F2027091F3028091F4029091C5
:10495000F5020E94D111FCCE80E18A83F9CE81E07C
:104960008A8382E8D9CEAA80BB80BA24AB24BA2439
:104970008E010F5F1F4F8C80800E912E911CC50100
:1049800082589D4F0815190509F4E2CEF2E8AF16DA
:10499000F1E0BF0650F40E949926F8018483FFEFEE
:1049A000AF1ABF0A0F5F1F4FEACFF8011482F7CF8B
:1049B0000A811B81102701271027CE0101964C0187
:1049C000AC80A00EB12EB11CC80182589D4FA0161C
:1049D000B10609F4BDCE0238E1E01E0720F4F4016F
:1049E00064810E94AD26FFEF8F1A9F0A0F5F1F4F51
:1049F000EBCF0E949410ACCE84E0AFCFAA80BB80F6
:104A0000BA24AB24BA248E010F5F1F4F8C80800E16
:104A1000912E911CC50186960815190509F498CEAA
:104A200028E5A21622E0B20650F40E949926F80169
:104A30008483FFEFAF1ABF0A0F5F1F4FEBCFF80160
:104A40001482F7CF0A811B81102701271027CE017E
:104A500001964C01AC80A00EB12EB11CC801869607
:104A60000A151B0509F474CE0835E2E01E0720F490
:104A7000F40164810E94AD26FFEF8F1A9F0A0F5F39
:104A80001F4FECCF80E00E94A4106FEF7FEF90E00B
:104A900080E00E94CB265CCECE0101960E945A0493
:104AA0002FEF81EE94E0215080409040E1F700C06C
:104AB0000000FACB80E189BD82E189BD09B400FE26
:104AC000FDCF8091D8008F7D8093D8008091E00049
:104AD00082608093E0008091E00081FDFCCF76CC85
:104AE00060E085E290E00E94AD260E943A100E94AC
:104AF000941081E00E94A41004CC85E290E00E9412
:104B000099261B821C821D828E8322CE78941F924E
:104B10001FB61F9211248F939F93AF93BF938091E1
:104B2000010390910203A0910303B0910403019645
:104B3000A11DB11D8093010390930203A093030371
:104B4000B0930403BF91AF919F918F911F901FBEAF
:104B50001F9018951F921FB61F9211248F939F9339
:104B6000AF93BF938091DC02811113C08091010348
:104B700090910203A0910303B09104034196A11DFB
:104B8000B11D8093010390930203A0930303B0939C
:104B90000403BF91AF919F918F911F901FBE1F90F3
:104BA0001895DB018F939F930E940027BF91AF91CF
:104BB000A29F800D911DA39F900DB29F900D112477
:104BC0000895991B79E004C0991F961708F0961B69
:104BD000881F7A95C9F78095089587FB082E0626C9
:104BE00087FD819567FD61950E94E1250EF4919501
:104BF00007FC81950895AA1BBB1B51E107C0AA1FA2
:104C0000BB1FA617B70710F0A61BB70B881F991F6D
:104C10005A95A9F780959095BC01CD01089597FB11
:104C2000072E16F4009407D077FD09D00E94FB25CB
:104C300007FC05D03EF4909581959F4F089570959F
:104C400061957F4F0895EE0FFF1F0590F491E02DC1
:104C50000994692796276927782787277827089551
:104C60008F929F92AF92BF92CF92DF92EF92FF927C
:104C7000CF93DF93EC01688179818A819B816115F3
:104C800071058105910521F464E279ED8BE597E0EA
:104C90002DE133EF41E050E00E94E12649015A0145
:104CA0009B01AC01A7EAB1E40E9400276B017C01E3
:104CB000ACEEB4EFA50194010E940E27DC01CB01FC
:104CC0008C0D9D1DAE1DBF1DB7FF03C00197A1092F
:104CD000B04888839983AA83BB839F77DF91CF9164
:104CE000FF90EF90DF90CF90BF90AF909F908F900C
:104CF00008950E943026089580E091E00E943026B9
:104D00000895B0E0A0E08093000190930101A0938A
:104D10000201B09303010895FC014150504030F06E
:104D200001900616D1F73197CF010895882799276A
:104D30000895F999FECF92BD81BDF89A992780B563
:104D40000895A6E1B0E044E050E00C94D326A8E139
:104D5000B0E042E050E00C94D326262FF999FECF24
:104D600092BD81BDF89A019700B4021639F01FBABE
:104D700020BD0FB6F894FA9AF99A0FBE08950396DB
:104D8000272F0E94AE260E94AD26252F0E94AE2618
:104D9000242F0C94AE260196272F0E94AE260C9449
:104DA000AD26DC01CB01FC01F999FECF06C0F2BDB6
:104DB000E1BDF89A319600B40D9241505040B8F7D9
:104DC0000895052E97FB1EF400940E94F82657FDC7
:104DD00007D00E94132707FC03D04EF40C94F8264A
:104DE00050954095309521953F4F4F4F5F4F089517
:104DF00090958095709561957F4F8F4F9F4F089547
:104E00000E943527A59F900DB49F900DA49F800D03
:104E1000911D11240895B7FF0C9400270E940027CC
:104E2000821B930B0895A1E21A2EAA1BBB1BFD0146
:104E30000DC0AA1FBB1FEE1FFF1FA217B307E40779
:104E4000F50720F0A21BB30BE40BF50B661F771FD1
:104E5000881F991F1A9469F76095709580959095B1
:104E60009B01AC01BD01CF010895A29FB001B39F8A
:104E7000C001A39F700D811D1124911DB29F700D63
:104E8000811D1124911D0895F894FFCF2510251040
:104E90002E102E1030102E102E102E102510251032
:104EA00035102E102E103510E6130E1461140E144A
:104EB000611441147914611481158E15CF19CF191D
:104EC000401A401A961A041A041A041AB01A861BB9
:104ED000951B951BF6181D19241929192E1933191C
:104EE00038193D19421947194C19511954195919B2
:104EF0005C195F196219651968196B198A238E2369
:104F0000DB23EC23F7231624192468249D2442254F
:104F10004C25AC24AF24B324D824F924FC24FE244B
:024F2000222548
:104F22000100000001191A1B1C1D1E1F2021220155
:104F3200029405A4099305A0099709010001020240
:104F420002020606060909090909090F0F0F0F0FC8
:104F52000F151515181919191919191919191923CC
:104F620024252525252525818283E200E900EA0002
:104F7200B500B600B700CD008301CC008A019201D2
:104F820094012102230224022502260227022A0278
:104F9200B300B4006F0070009091929395F0F1C647
:104FA2006766369431F735349796333240226D3B3B
:0C4FB200011901AC009F06B806D80600EB
:00000001FF
